:020000040000fa
:080000000001040000000000f3
:020000040000fa
:0400080010020000e2
:020000040000fa
:04000c0022020000cc
:020000040000fa
:0400100032020000b8
:020000040000fa
:0400140018020000ce
:020000040000fa
:040018002a020000b8
:020000040000fa
:04001c006802000076
:020000040000fa
:040020006802000072
:020000040000fa
:04002400680200006e
:020000040000fa
:04002800680200006a
:020000040000fa
:04002c006802000066
:020000040000fa
:040030006802000062
:020000040000fa
:040034003a0200008c
:020000040000fa
:04003800680200005a
:020000040000fa
:04003c006802000056
:020000040000fa
:040040006802000052
:020000040000fa
:04004400680200004e
:020000040000fa
:04004800680200004a
:020000040000fa
:04004c006802000046
:020000040000fa
:040050006802000042
:020000040000fa
:04005400680200003e
:020000040000fa
:04005800680200003a
:020000040000fa
:04005c006802000036
:020000040000fa
:040060006802000032
:020000040000fa
:04006400680200002e
:020000040000fa
:04006800680200002a
:020000040000fa
:04006c006802000026
:020000040000fa
:040070006802000022
:020000040000fa
:04007400680200001e
:020000040000fa
:04007800680200001a
:020000040000fa
:04007c006802000016
:020000040000fa
:040080006802000012
:020000040000fa
:04008400680200000e
:020000040000fa
:04008800680200000a
:020000040000fa
:04008c006802000006
:020000040000fa
:040090006802000002
:020000040000fa
:0400940068020000fe
:020000040000fa
:0400980068020000fa
:020000040000fa
:04009c0068020000f6
:020000040000fa
:0400a00068020000f2
:020000040000fa
:0400a40068020000ee
:020000040000fa
:0400a80068020000ea
:020000040000fa
:0400ac0068020000e6
:020000040000fa
:0400b00068020000e2
:020000040000fa
:0400b40068020000de
:020000040000fa
:0400b80068020000da
:020000040000fa
:0400bc0068020000d6
:020000040000fa
:0400c00068020000d2
:020000040000fa
:0400c40068020000ce
:020000040000fa
:0400c80068020000ca
:020000040000fa
:0400cc0068020000c6
:020000040000fa
:0400d00068020000c2
:020000040000fa
:0400d40068020000be
:020000040000fa
:0400d80068020000ba
:020000040000fa
:0400dc0068020000b6
:020000040000fa
:0400e00068020000b2
:020000040000fa
:0400e40068020000ae
:020000040000fa
:0400e80068020000aa
:020000040000fa
:0400ec0068020000a6
:020000040000fa
:0400f00068020000a2
:020000040000fa
:0400f400680200009e
:020000040000fa
:0400f800680200009a
:020000040000fa
:0400fc006802000096
:020000040000fa
:040100006802000091
:020000040000fa
:04010400680200008d
:020000040000fa
:040108006802000089
:020000040000fa
:04010c006802000085
:020000040000fa
:040110006802000081
:020000040000fa
:04011400680200007d
:020000040000fa
:040118006802000079
:020000040000fa
:04011c006802000075
:020000040000fa
:040120006802000071
:020000040000fa
:04012400680200006d
:020000040000fa
:040128006802000069
:020000040000fa
:04012c006802000065
:020000040000fa
:040130006802000061
:020000040000fa
:04013400680200005d
:020000040000fa
:040138006802000059
:020000040000fa
:04013c006802000055
:020000040000fa
:040140006802000051
:020000040000fa
:04014400680200004d
:020000040000fa
:040148006802000049
:020000040000fa
:04014c006802000045
:020000040000fa
:040150006802000041
:020000040000fa
:04015400680200003d
:020000040000fa
:040158006802000039
:020000040000fa
:04015c006802000035
:020000040000fa
:040160006802000031
:020000040000fa
:04016400680200002d
:020000040000fa
:040168006802000029
:020000040000fa
:04016c006802000025
:020000040000fa
:040170006802000021
:020000040000fa
:04017400680200001d
:020000040000fa
:040178006802000019
:020000040000fa
:04017c006802000015
:020000040000fa
:040180006802000011
:020000040000fa
:04018400680200000d
:020000040000fa
:040188006802000009
:020000040000fa
:04018c006802000005
:020000040000fa
:040190006802000001
:020000040000fa
:0401940068020000fd
:020000040000fa
:0401980068020000f9
:020000040000fa
:04019c0068020000f5
:020000040000fa
:0401a00068020000f1
:020000040000fa
:0401a40068020000ed
:020000040000fa
:0401a80068020000e9
:020000040000fa
:0401ac0068020000e5
:020000040000fa
:0401b00068020000e1
:020000040000fa
:0401b40068020000dd
:020000040000fa
:0401b80068020000d9
:020000040000fa
:0401bc0068020000d5
:020000040000fa
:0401c00068020000d1
:020000040000fa
:0401c40068020000cd
:020000040000fa
:0401c80068020000c9
:020000040000fa
:0401cc0068020000c5
:020000040000fa
:0401d00068020000c1
:020000040000fa
:0401d40068020000bd
:020000040000fa
:0401d80068020000b9
:020000040000fa
:0401dc0068020000b5
:020000040000fa
:0401e00068020000b1
:020000040000fa
:0401e40068020000ad
:020000040000fa
:0401e80068020000a9
:020000040000fa
:0401ec0068020000a5
:020000040000fa
:0401f00068020000a1
:020000040000fa
:0401f400680200009d
:020000040000fa
:0401f8006802000099
:020000040000fa
:0401fc006802000095
:020000040000fa
:100200008f8f20000eff27000e01880000000000e5
:10021000000020000000e000020032000001200089
:100220002002880014000700ff0007000000e00023
:1002300003003a000069210001002000020037009d
:100240000000200001002000810f7000010032003a
:1002500014000700000020000000e000020032004f
:1002600000000200000000005c1902000000000015
:100270000040da000000fe004440a90060062000b3
:100280000000e00003003200002020009001880000
:100290004440a800000006008a1f78008b1f7800e9
:1002a00000000600a1028800800478000000eb0036
:1002b0001f003700e284440054a0b4009905ba003e
:1002c000e284440054a0b4009906ba00e2844400d9
:1002d00054a0b4000006eb00476fde00fd07b2003b
:1002e000ae018800636ce10003003a00eaff0700fa
:1002f0000000eb000e003700606ce10008003a00df
:10030000004deb000a05e800020039003420ec0043
:100310000af0a0008b05e900f9ff3e000400370059
:100320006168e100010032000086eb000b0007006d
:1003300019c7ba001905ba000e04e00003003a001c
:100340000a00e000dbff3a0000000600fe07b200f2
:10035000ae0288008a047800f5ff37000cd0a300b5
:10036000e20f4d001c00390089027800354dba00bb
:100370000a05e800020039003420ec000af0a00071
:100380008b05e9000f003200254dba000a05e80090
:10039000020039003420ec000af0a0008b05e900cf
:1003a000080032000c00e0000600320015cdba0053
:1003b0000a05e800020039003420ec000af0a00031
:1003c0008b05e9008984e80054a0b4000b00e0002c
:1003d000e2ff3a00000006009902ba00055d7800cd
:1003e0008b05e900f7ff3200c82ade00055d7800c2
:1003f0008b05e900f3ff32000c00e000f1ff320052
:1004000019ddba00eeff37002203040000000000ef
:10041000c60c040000000000000004000000000002
:100420003600f8008020a9000000eb003b0c07001c
:100430003600f8003d0c07008040a90010002000a5
:10044000360c07003600f8008060a900200020006c
:10045000320c07003600f8008080a9003000200030
:100460002e0c07003600f8008600a900700020005e
:100470002a0c07003600f800809fbe00829fbe0055
:10048000849fbe00869fbe000000fa000c0b070090
:10049000108f2000104078008040e800108f20006e
:1004a00001487800008f200011c0b3000148780097
:1004b0008860a9000080fa004f03be004f02be0012
:1004c0004f01be004f00be003600f900004006009c
:1004d0000040da000000fe000a00fa0011002000cf
:1004e000b1bf9f00c0bf9f006a805700160607007b
:1004f0004fb897000080fa00000006000a00fa00da
:1005000051002000b1bf9f00c0bf9f006a8057000c
:100510000f0607005fb897000080fa000000060091
:10052000889fbe0080047800b04780000000e00093
:1005300004003a000e0007000084eb000000e00019
:1005400008003500b84780000900e00005003200cf
:1005500009004400060007000000e00001003d0023
:100560000084eb00080078004f04be000000060085
:10057000800078000100e00003003a000000200045
:10058000b0478800000005000080eb00020020005a
:10059000828f500002003e00b14788000000eb004f
:1005a000000006000800fa001007980021079800d4
:1005b0003207980000000000311e8000001020006b
:1005c000008060000000e000fbff3200be009000f1
:1005d000010f78000e00370000000000311e80007f
:1005e00000102000008060000000e000fbff3200ef
:1005f0002e009000104078000000fb00401e880094
:100600002e0090000000e800200798001e0fe9006f
:100610001e0078000000e000efff3a003e0090006e
:100620000080fa000000060000000500800078004d
:10063000010178003104e000fdff3a0000005100a4
:1006400000000600889fbe000004780001007800ca
:1006500082047800880178000901780011002000e8
:10066000d2010700890f5000010032000004eb00a6
:10067000080078004f04be00000006000000fa00e9
:10068000e88157004fb997000183200020322000f5
:10069000020007000080fa00000006006200fa0075
:1006a000889fbe008a1f78000005780081047800ca
:1006b000020478008300780080f92f000f004000ca
:1006c0005d0407009a979f00a9979f000000eb0028
:1006d000b09f9f001885fb008a04fb000a05ea0012
:1006e0004f55de0050022000808f54000d00320074
:1006f000e10f55000b003a000a01780088007800ed
:100700002f9097009f91970003000100a0979f00f2
:100710000000e0008e0032003f9897000000e800e3
:10072000b09f9f000a04440050022000808f5400b4
:10073000040032000900e000e6ff3a003f9897000d
:10074000840037000000eb00909f9f00809f9f0077
:10075000f0979f00e0979f00d0979f00c0979f0061
:1007600007003700618e20000100500000004000ab
:10077000a18d200061007800df98970001007000d3
:10078000d09f9f00880478000904780038457800dd
:100790008a00fb00608e2000e90107000000e000f5
:1007a000f0ff3a00a1c2b300814f55000e003a009d
:1007b000cf8897000180e900c08f9f00100078006b
:1007c000c09f9f000000e00005003d000000ea001f
:1007d000c09f9f005f9897000020a000d09f9f00bf
:1007e0000904e8000f003700c09f9f000000eb00e5
:1007f00005003700f2ff2700820f50000200320090
:100800006a01b90002804000090478008804780079
:10081000b900fb000103b100e98f5000f5ff36007d
:10082000c09f9f00e0c2b300984f1000020032004a
:100830000080eb0019003700a0c2b300d84f1000b1
:1008400007003a00cf8897000180e900c08f9f0021
:1008500010007800a09f9f000804e80010003700f7
:100860000000eb00a09f9f00880078000500370083
:10087000f3ff2700830f5000020032006a02b90024
:100880000400410001047800880078003101fb0079
:100890000203b100e90f5100f5ff3600a09f9f0051
:1008a000984478008900fb00208d2000a4010700f7
:1008b0000000e000020032000804e80001003700f8
:1008c0008044eb00c97f9f0080c6b30080cf5400f6
:1008d00004003a0098cf14000a003a006640500025
:1008e00006003700c0c6b30080cf540005003a00b0
:1008f00098cf140003003a0065404000c07f9f007d
:100900000804e8001801fb00e3fb2f008f81410081
:1009100081f92f008f804000a0f92f000f004000c8
:10092000100007000000e00009003a00e1fb2f0082
:100930008f804000a0f92f000f0040000203070045
:100940000000e000020035000804e80061ff370005
:100950000080eb004f0578004f04be000080fa00d5
:1009600000000600889fbe008a9fbe00e4c6b30058
:10097000844f5100be00320010003c006b42520018
:10098000844f51001800320005003c0054c2b300ef
:10099000844f5100f600320084c5b3000f003700c9
:1009a00044c6b300844f5100140032006542420037
:1009b000844f5100f1003a001000370004c7b30023
:1009c000844f5100dd003200560035006542420080
:1009d000844f51005300320063424200844f510063
:1009e000e6003a004f0037001181e90082087800e4
:1009f000f000900012417800de0037002062900085
:100a0000c5c6b300854f520007003a009102780036
:100a100064825200840878001402be004fabde00ee
:100a2000860378001400370015c7b300854f5200c5
:100a300003003a00110478006802540005003700f2
:100a4000a5c6b300854f520006003a009104780015
:100a500068825400840878005403be004402be003b
:100a6000050037001182e90084087800140278003c
:100a7000cfa2de00612bb9000498be000690be0034
:100a8000a060900088c6b30088cf50000d003200ef
:100a900028c6b30088cf500004003a000402fb00cf
:100aa000cfa2de00612bb9000800370048c7b300b1
:100ab00088cf5000030032006644440088cf5000c5
:100ac00004003a00cfa2de00612bb9000498be00fa
:100ad0000690be003002be002003be00f000900071
:100ae000e00f5200e08f5a00e00f5b00e08f5b00e8
:100af00002003d00d4c2b30008003700001290008d
:100b00000418a30002003200b4c2b300030037008f
:100b10000408a3005100320004c2b30084f178003d
:100b20004c00370020629000c5c6b300854f5200cc
:100b300008003a0011057800640255008408780026
:100b40001404be006055b8000802be000a03be00cf
:100b50001400370015c7b300854f520003003a0058
:100b6000910478006882540005003700a5c6b300e0
:100b7000854f520006003a001105780068025500c2
:100b8000840878005403be004402be00050037000c
:100b90001182e90084087800140278008002eb00da
:100ba0006033b8000498be000690be00a0609000bc
:100bb00088c6b30088cf50000d00320028c6b300ad
:100bc00088cf500004003a000482fb008002eb0052
:100bd0006033b8000800370048c7b30088cf500022
:100be000030032006644440088cf500004003a00fd
:100bf0008002eb006033b8000498be000690be008f
:100c0000801090000138a300140032003002be00b2
:100c10002003be00e00f5200e08f5a00e00f5b009f
:100c2000e08f5b000d00320081c7b300814f51009f
:100c30000300320081c5b300814f510007003a0024
:100c4000f000900004c3b30084f178008100e80054
:100c500082f178008100e80071009800f0009000b7
:100c60008181410063009800824078003e00370097
:100c7000a0619000c4c6b3001181e90084cf510087
:100c8000220032000a003c006442520084cf51002e
:100c90002500320004c2e80084cf51001300320066
:100ca0006842520084cf51001e003a000a0037000b
:100cb00044c7b30084cf51001b003200664242009b
:100cc00084cf5100180032006942520084cf510095
:100cd00014003a000500370082087800920078007e
:100ce00040589000804878002c0037008208780037
:100cf00092007800600a9000cfa2de00612bb9005c
:100d00008498be008690be002400370082087800d8
:100d10009200780060099000cf91de008288be00ca
:100d20001e0037001181e9008208780092007800e7
:100d30006008900080087800180037001181e900f1
:100d40008208780012027800cfa2de00612bb90081
:100d50000498be000690be00f00090008181410022
:100d60006300980081c7b300c80007000b0037007c
:100d7000f000900082f1780006003700f00090004b
:100d8000818141000204e00001003a0052c2b30038
:100d9000824978008100e800710098000000eb00b3
:100da0004f05be004f04be0000000600889fbe0035
:100db0008a9fbe008c9fbe008e1f780000067800c0
:100dc0000104780002007800830478000881b900eb
:100dd000020778000200e000420032000800e00054
:100de0004100320082057800c9009000690090003f
:100df000808f500004003900090078005c00070073
:100e00000000e000290035000040200019006000cb
:100e10000a0032000b017800a10020000c007800cd
:100e200036000700800678000d00e0000600320062
:100e3000610516000a854600040037000b0578009e
:100e40008006eb00010037000b0578004900900098
:100e5000e9009000808050008a8f5000020031002d
:100e6000010578008006eb000a0178008c0078000c
:100e70002c0007008a855500490090000a004000b8
:100e8000c00498000d00e000040032000900780062
:100e9000ce0207000000e00004003a000b00e00072
:100ea000020032000a064600cfff37000080200013
:100eb000190060000200320009007800c302070038
:100ec00000c02000190060000200320049009000bc
:100ed000e00498008b055700110009008885d800b0
:100ee000010037000000eb004f0778004f06be00fe
:100ef0004f05be004f04be0000000600030037008f
:100f0000b0cf1000050032000201e9008001780036
:100f10000200e000faff3a0000000500030078003c
:100f2000000006008001780002003700b159780007
:100f30000201e9000200e000fcff3a0000000600a8
:100f4000020037000304e0000600320000017800d0
:100f500002007800b041780081cf5100f9ff3a00db
:100f6000010037000001eb000200780000000600dd
:100f7000889fbe008a1f780000047800c800900097
:100f8000680190000000eb00828f50003c003900a7
:100f9000180078002200290002016000e20f5100d1
:100fa00007003200012024000000e00001003d00a5
:100fb00001202000008c70000080eb003000370022
:100fc0000200260002006000820f500009003a0073
:100fd00038009000808f500006003900080078002b
:100fe0007a020700800078000080eb000100e0003a
:100ff00023003a001805780000c0200000006500ba
:1010000018003a00a8049000600220000800400088
:10101000808f540013003a000020200016030700c0
:10102000200498000000e00005003a002904980020
:10103000490498008904e800390498000800370042
:101040000a60a0000a0c78004004980001202000eb
:101050008080400031049800400c9800500c9800ab
:10106000f901070028009000500498003800900013
:101070006004980000002600180c70000000eb00cf
:101080004f0578004f04be0000000600fc874700b3
:10109000889fbe008a9fbe008c9fbe008e1f780076
:1010a0000006780080c5b30080cf50000a003200ef
:1010b0007740400080cf50000a0032006940400075
:1010c00080cf50000b003200108a200080bf9f00ac
:1010d000ae0020000a0037000289200082bf9f0076
:1010e00006003700138a200083bf9f008e00200077
:1010f00003003700148a200084bf9f000e012000e7
:101100003c02be002c03be000605be000404be0067
:1011100040c6b30080cf500003003200654040005d
:1011200080cf50000b003a00e00f5200e08f5a00d1
:10113000e00f5b00e08f5b0006003d006000b80040
:101140006011b80004045000858458000605590059
:1011500087855900e80f5700040032004000200046
:10116000f00f570038003a0001003700300020002f
:10117000e00f5400e08f5c00e00f5d00e08f5d0049
:1011800004003a00dc0890008d0120000100e0001e
:10119000060032008e00e900888060008fba970058
:1011a000e5c07800f1ef9f007d012000800078000d
:1011b0008100e900050033008b05d1000a85d300ca
:1011c0008984d3000884d300f9ff3700089ebe004d
:1011d0000a96be00120037008d06e9008e00e90075
:1011e000848060000fb99700e2c1780082fd2f0073
:1011f0000f01410003f17e00800078008100e900ca
:10120000050033008783d1000683d3008582d30095
:101210000482d300f9ff3700049ebe000696be008c
:101220003c02be002c03be00e00f5200e08f5a00cb
:10123000e00f5b00e08f5b008b0034000d00e000ee
:10124000e5ff3c00880037002c60900081c6b300a9
:10125000814f50000b00320006003c000004e0000b
:1012600008003200e6c05000814f50004e003a00a6
:1012700004003700c1c6b300814f50004a003a0055
:10128000210037000800e00004003a005c089000ec
:101290008d0120000000e00006003200110009006e
:1012a0000e84d8000fb99700e2c07800f1ef9f00dc
:1012b0007d012000110009000e84d8000a003700cb
:1012c000110009000e04d8008d06e9000e81b90056
:1012d000020454008fb8970061417c0081fd2f000b
:1012e0008f80400082f07e00000478000800e0005b
:1012f000020032000d00e000f1ff3c00cfc4de0030
:10130000614db90025003700e00f5400e08f5c000c
:1013100004003a005c0890008d0120000000e0000d
:10132000070032006171b9000800be00a902070081
:101330008fb99700e3417800f3ef9f007d01200013
:101340006171b9000800be00920207000b0037006f
:101350006171b9000800be007f0207008d06e90038
:1013600000f1b900020454000fba9700e4427c0077
:1013700084fd2f000f02420005f27e000004be0033
:10138000e00f5000e08f5800020032000d00e00036
:10139000efff3c004fcdde008a057800089ebe00be
:1013a0000a96be0030003700e00f5400e08f5c006a
:1013b000e00f5d00e08f5d0004003a005c089000e3
:1013c0008d0120000000e000090032006172b900c8
:1013d000612bb9000800be000a01be002603070009
:1013e0000fba970064427800f4ef9f007d0120005f
:1013f0006172b900612bb9000800be000a01be008d
:10140000160307000d0037006172b900612bb900a7
:101410000800be000a01be001b0307008d06e9009c
:1014200000f2b900040454008fba970065427c00b2
:1014300085fd2f008f82420084f27e00009ebe0058
:101440000296be003c04be002c05be00e00f540016
:10145000e08f5c00e00f5d00e08f5d000200340073
:101460000d00e000e8ff3c00e80f570010003a00d4
:101470000c1090000038a3000d003200f78f5600ca
:1014800006003e0085fd2f008f824200e5c07e00f1
:1014900000c3b30080cf5000050032008d06e90084
:1014a00002c3b30081fd2f008f80400082f07e00d8
:1014b00078811600120e98006c00900083fd2f00ba
:1014c0008f8141008d80410096fe07001c0890002e
:1014d000dc089000810f500006003d0000805000a5
:1014e000000e98000c1090000040a100001698001b
:1014f0000f0037000100e0000d003d008c1090004f
:10150000f4806000f08f500009003a007c099000e0
:10151000fc009000810051000c0990008280500076
:10152000008050004240a90001003400000e9800e5
:101530004f0778004f06be004f05be004f04be00a7
:10154000cf01b100000006000400fa00889fbe0031
:101550008a9fbe008c1f7800000478000106780086
:10156000f80d9000780090008085550008089000e4
:101570008085550018089000808555002808900047
:1015800080855500380890008085550048089000f7
:10159000808555000002220090bf9f0000032300b9
:1015a000a0bf9f00081090000028a30015003a007b
:1015b0000b00e000130034000b0578008a0478006b
:1015c000e20f55000100360029002000c8019000fc
:1015d00009017800ee8057005800900003000100d8
:1015e000500498000000e0008c0032006808900071
:1015f00009004000600c9800090555004240a90010
:10160000eeff3c00780190000200e0000c00340086
:10161000c80190008c007800580090000300010081
:10162000500498008080eb000000e0007c00320055
:10163000e80890007800900000804000600c98005e
:10164000880c90000900e0001100340009057800c2
:10165000e28f5400010036002a002000c8019000eb
:101660000a017800ec805700580090000300010048
:10167000500498000000e000680032006808900004
:101680000a004000600c98008a845400edff370087
:10169000180990000200e0000c003400c80190001e
:1016a000e8009000580090000300010050049800ea
:1016b0008080eb000000e00059003200e808900054
:1016c0001808900000804000600c9800a80c900062
:1016d0000900e0001100340009057800e28f540091
:1016e000010036002a002000c80190000a0178009d
:1016f000ec8057005800900003000100500498004f
:101700000000e00045003200680890000a00400038
:10171000600c98008a845400edff3700380990006f
:101720000200e0000e003400e8009000180890006d
:1017300080804000c8019000580090000300010024
:10174000500498008080eb000000e000340032007c
:10175000e80890003808900000804000600c980075
:10176000c80c90000900e000110034000905780061
:10177000e28f5400010036002a002000c8019000ca
:101780000a017800ec805700580090000300010027
:10179000500498000000e00020003200680890002b
:1017a0000a004000600c98008a845400edff370066
:1017b000081090008000eb000028a3001800320001
:1017c0000b00e000160034008b0478000905780057
:1017d000e28f5400010036002a002000c80190006a
:1017e0000a017800ee8057005800900003000100c5
:1017f000500498000000e0000800320068089000e3
:101800000a004000600c98008a8454004240a900fd
:10181000eeff3c008000eb00010037008080eb0011
:10182000010078004f0678004f05be004f04be004f
:101830000080fa00000006000108780000000600a1
:1018400060cc20009b003700881f7800288f200084
:101850001804e00003003a00f9ff070020c0b300bd
:10186000004c78004f04780000000600889fbe00fe
:101870000004780008007800540007008004780015
:1018800000042000180060000200320028009000d0
:10189000940007000000eb002004980038409000fe
:1018a0000004e000050035000000fb000afb070013
:1018b0000000e000010032008084eb00181090006e
:1018c0000000e000080032000cfb07000000e00010
:1018d000010032008084eb001810900081000700a6
:1018e0000000eb00101498000008200018006000b1
:1018f000150032000001eb006000b80003882000f2
:101900000202d00063027a00880f520005003a00fc
:101910000000400081804800008041000008eb008a
:101920000600370061004000e08048000201e80046
:10193000e80f5000e08f5800f0ff3a0008007800f0
:10194000680007000e003700000c780000c0eb00b4
:1019500030449800600220000800400020049800f5
:101960004004980050049800400c980060049800cf
:10197000500c98007004980076004400000c980009
:10198000090078004f04be0000000600881f7800a0
:101990000004eb006140b800e2ff2f00f3ff2f00ce
:1019a0000f010700e2882000620078000000e000dc
:1019b00001003200adff07000804e800e80f540002
:1019c000f4ff3a004f04780000000600889fbe0034
:1019d000000478000800e0000e003a008004eb00ec
:1019e0008800d00000882000610078000000e0003e
:1019f00004003200f5ff07000000e00001003d0098
:101a00008084eb000804e800e80f5400f4ff3a007b
:101a10002500370000002200180060008004eb0061
:101a200021003200a80490000f0037000901510086
:101a3000384090000000fb0089007800d9fa0700c8
:101a40000000e00007003c002800900040049800df
:101a500060049800500c98001890a0008084eb005f
:101a6000110037008084440048019000828f5400a8
:101a7000eeff39002800900040049800980078009c
:101a800002c020000281600001003a00380090008e
:101a900001e8a30002003200600498000100370052
:101aa000500c98008004eb00090078004f04be0041
:101ab00000000600010020000100e00008003200e4
:101ac000010080000100e000050032008100e90013
:101ad000010088008100d0000200800000b1780081
:101ae000000006000000e0002f003200c001780076
:101af000e38f51002c0036000308a3002a003a00af
:101b0000714780000100e00002003200810f5000a8
:101b1000040031001100980070478800160037005b
:101b200082007800110190000200e0000200320003
:101b3000800f5100faff39001102780084824000c2
:101b4000850f500018003900808f520003003a00c2
:101b50008308420001007800070037000200e0001f
:101b60000300320083014000830f51000e00390052
:101b70001200980090009800900090000100e00092
:101b80000900320010014000828f500006003a0028
:101b9000c28e20000009eb001001780011084100fe
:101ba000910090001100980000000600889fbe0080
:101bb00000047800614780000100e000020032006c
:101bc000010078000d00370071478000e08e200092
:101bd00004003700910f5400250036000180e80012
:101be000910090000100e000faff3a001000370079
:101bf000920f54001e0036000280e80010017800a9
:101c00000200e000faff3a001101780071478000fd
:101c1000e08e200004003700910f540014003600bd
:101c20000180e80091009000828f5000faff3a0096
:101c3000a9478000888f5400010031008804780093
:101c400009007800360007000000e00004003a00b8
:101c5000888f5400050032008904d100f5ff370059
:101c6000091878009fff0700d2ff37000000eb0043
:101c70004f04be0000000600881f78006304400087
:101c80000800a1008000eb00800f54002100360006
:101c9000e30f540001003e004800200008007800d7
:101ca000c2ff07008000eb000000e00019003200d6
:101cb000900078009101780064815100880f5100f4
:101cc000030031001101900002087800070037007e
:101cd00008814000020878009101900013019800eb
:101ce00010017800110914008808780010017800ac
:101cf0000000eb000200e0000400320092019000be
:101d00000300e000010032000280e8006047880024
:101d10008180e800010078004f0478000000060090
:101d2000800078000000eb000100e00005003400b6
:101d300001007800faf90700e10f400001003a00c5
:101d40000000eb000000060000c0da000000060002
:101d500000c0da0000000600839f68000100e00078
:101d600002003d0060001000e08018000300e00069
:101d700002003d0060011100e0811900050007002c
:101d80004f00e00002003b0060001000e0801800ff
:101d9000000006006022b800060220000000d0000b
:101da0008180d2000482d2008582d2000000a0008f
:101db0000202520083825a000300310002024200f4
:101dc00083824a000000a1000603e900f3ff3a0005
:101dd00000000600efff07000400be000000060040
:101de000020ab900001bb9000200b80081004200dd
:101df0008100430000000600889fbe008a9fbe004d
:101e000030044200b0844a0030054b0090854b00fe
:101e10006000b1000898be000a90be000440e100d6
:101e200005c8e10006d0e10007d8e100020031005a
:101e3000680040001008e8004f05be004f04be00d7
:101e400000000600889fbe008a9fbe003004be00ce
:101e50002005be000418540005985c0006185d00bb
:101e600007985d00110020000440e10005c8e10072
:101e700006d0e10007d8e100010039008000eb0046
:101e8000108810004f05be004f04be000000060081
:101e90001200fa00889fbe008a9fbe008c9fbe0081
:101ea000e0b79f00f1b79f0082bf9f0093bf9f00e4
:101eb0000605be000404be000000eb00d0b79f0082
:101ec000c0b79f00b0b79f00a0b79f0090b79f001a
:101ed0000006eb005fb19700cfb097008201410090
:101ee0003fb097000200e00004003d00370007000b
:101ef0007e805700c0ff0700030037003300070053
:101f00007e805700cfff0700dfb697000d00e0008e
:101f10000c0035006fb29700ffb297000fbb97001f
:101f20009fbb970010002000010020006011b80046
:101f300000027200818272000203730083837300c7
:101f40001b0007000c06e80001042000810f56006a
:101f5000e0ff3a000d00e00004003d000802be0072
:101f60000a03be007e805700a3ff07005fa897000a
:101f70000000e00005003a001fb29700afb29700e2
:101f80003fb39700cfb39700090007006fb09700e9
:101f9000ffb097000fb997009fb997004f06be009a
:101fa0004f05be004f04be000080fa00000006008e
:101fb0000100070000000600a4b79f00b5b79f000e
:101fc000c6b79f00d7b79f00000006004f09de008c
:101fd00082817100b3b79f004f01de008180400015
:101fe00082807000a1b79f008fb097004f09de007c
:101ff000000040000200700090b79f007fa897008b
:102000004f01de00818040008280700081b79f0018
:102010000d0007004f3ade00000040000400700091
:10202000f0af9f00080007000402420085824a00ca
:1020300006034b0087834b00dfff07000802be004a
:102040000a03be00000006002fb29700bfb297003f
:102050004fb39700dfb3970000000600881f780099
:1020600018002000881f780089ff07008f87e9008b
:102070004f04780000000600801feb0084ff07007b
:102080008f87e90000000600889fbe008a9fbe007f
:10209000e00f5000e08f5800e00f5900e08f59002a
:1020a0000c003d006044b8006055b80000005400ca
:1020b00081805c0002015d0083815d0018002000ca
:1020c0001500070008003d00180007000004eb00a1
:1020d000050037000004eb000f00070002003d0080
:1020e0001200070018002000dcff07000800e000d5
:1020f000060032006022b8006033b80000005200d1
:1021000081805a0002015b0083815b004f05be00a5
:102110004f04be0000000600e00f5200e08f5a009e
:10212000e00f5b00e08f5b00000006006044b80039
:102130006055b8000402540085825c0006035d000f
:1021400087835d0000000600889fbe008a9fbe0056
:102150008c1f7800e00f5000e08f5800e00f59000e
:10216000e08f59000d003d006044b8006055b80094
:102170000000540081805c0002015d0083815d00ed
:102180001c0020000820e10009a8e1000ab0e100dd
:102190000bb8e1000d003d00080037000006eb0021
:1021a000e00f5200e08f5a00e00f5b00e08f5b0011
:1021b00006003d006044b8006055b80004025400b9
:1021c00085825c0006035d0087835d00aaff07002f
:1021d0000c00e000060032006022b8006033b80056
:1021e0000000520081805a0002015b0083815b0085
:1021f0004f0678004f05be004f04be0000000600e9
:020000040000fa
:10220000576500006c6300006f6d0000652e0000d4
:102210002e2e000020520000696300006b000000b9
:1022200054680000697300002069000073200000fa
:102230007468000065200000746500007874000078
:10224000207400006f200000736500006e640000c1
:102250000a0d00000056000061720000203d0000e1
:1022600020250000640a00000d00000054650000f5
:1022700078740000207400006f2000007365000077
:102280006e6400000031000032330000343500007d
:10229000363700003839000030410000424300006a
:1022a0004445000046470000484900004a4b0000f2
:1022b0004c4d00004e4f0000500a00000d00000081
:0c22c00000000000000000000000000012
:020000040000fa
:1022cc000200fa00000f78001e007800e40f5000a6
:1022dc0018003200e40f500007003e00e20f5000df
:1022ec0010003200e20f500010003e00e10f5000d1
:1022fc000a00320019003700e60f500011003200be
:10230c00e60f50000d003900e70f50000f003200af
:10231c00e80f50000f003200100037006606a800ce
:10232c000e0037006626a8000c0037006646a80091
:10233c000a0037006666a800080037006686a80009
:10234c000600370066a6a8000400370066c6a80081
:10235c000200370066e6a800000000000080fa00ca
:10236c00000006000200fa00000f78001e00780042
:10237c00e40f500018003200e40f500007003e003c
:10238c00e20f500010003200e20f500010003e002f
:10239c00e10f50000a00320019003700e60f500020
:1023ac0011003200e60f50000d003900e70f50000d
:1023bc000f003200e80f50000f0032001000370001
:1023cc006606a9000e0037006626a9000c0037002f
:1023dc006646a9000a0037006666a90008003700a7
:1023ec006686a9000600370066a6a900040037001f
:1023fc0066c6a9000200370066e6a90000000000ce
:10240c000080fa00000006000200fa00000f7800bd
:10241c001e007800e40f50003b003200e40f500027
:10242c0007003e00e20f50001b003200e20f50008c
:10243c0027003e00e10f50000a0032007800370000
:10244c00e60f50004c003200e60f50003c00390003
:10245c00e70f500056003200e80f500062003200c7
:10246c006f0037003033800000407800614060001e
:10247c000004a200614060000080fb00610060006d
:10248c0032338000e1ff2f008100610001007000f9
:10249c003033880062003700303380000000d100f8
:1024ac00614060000004a200614060000080fb00fd
:1024bc00610060000000400032338000d1ff2f002b
:1024cc008100610001007000303388005400370037
:1024dc00303380004200de00614060000004a20046
:1024ec00614060000080fb00610060004200dd0084
:1024fc0032338000b1ff2f008100610001007000b9
:10250c003033880046003700303380004300de0053
:10251c00614060000004a200614060000080fb008c
:10252c00610060004300dd003233800071ff2f003a
:10253c0081006100010070003033880038003700e2
:10254c00303380004400de00614060000004a200d3
:10255c00614060000080fb00610060004400dd0011
:10256c0032338000f1fe2f00810061000100700009
:10257c00303388002a003700303380004500de00fd
:10258c00614060000004a200614060000080fb001c
:10259c00610060004500dd0032338000f1fd2f004a
:1025ac008100610001007000303388001c0037008e
:1025bc00303380004600de00614060000004a20061
:1025cc00614060000080fb00610060004600dd009f
:1025dc0032338000f1fb2f0081006100010070009c
:1025ec00303388000e003700303380004700de00a7
:1025fc00614060000004a200614060000080fb00ac
:10260c00610060004700dd0032338000f1f72f00dd
:10261c008100610001007000303388000000000070
:10262c000080fa00000006000200fa00000f78009b
:10263c001e007800e40f50002a003200e40f500016
:10264c0007003e00e20f500016003200e20f50006f
:10265c001c003e00e10f50000a0032004c00370015
:10266c00e60f50002f003200e60f50002500390015
:10267c00e70f500034003200e80f50003b003200ee
:10268c0043003700303380006100600000f0a70089
:10269c000000ea000000ea004f00de000040780075
:1026ac003c003700303380006200600000f0a7006f
:1026bc000000ea000000ea004f00de000040780055
:1026cc0034003700303380006400600000f0a70055
:1026dc000000ea000000ea004f00de000040780035
:1026ec002c003700303380006800600000f0a70039
:1026fc000000ea000000ea004f00de000040780015
:10270c0024003700303380007000600000f0a70018
:10271c000000ea000000ea004f00de0000407800f4
:10272c001c00370031338000000220000080600064
:10273c0000f0a7000000ea000000ea004f00de00f5
:10274c000040780013003700313380000004200073
:10275c000080600000f0a7000000ea000000ea0022
:10276c004f00de00004078000a0037003133800053
:10277c00000820000080600000f0a7000000ea00c4
:10278c000000ea004f00de00004078000100370036
:10279c000040eb000080fa00000006000200fa0086
:1027ac00000f78001e007800e40f50001800320073
:1027bc00e40f500007003e00e20f50001000320002
:1027cc00e20f500010003e00e10f50000a003200f2
:1027dc0019003700e60f500011003200e60f5000d0
:1027ec000d003900e70f50000f003200e80f5000c9
:1027fc000f003200100037006206a9000e003700ef
:10280c006226a9000c0037006246a9000a003700b6
:10281c006266a900080037006286a900060037002e
:10282c0062a6a9000400370062c6a90002003700a6
:10283c0062e6a900000000000080fa00000006001b
:10284c000000fa00b135800000f02f00008060001d
:10285c00b03588009135800000f02f0000806000ba
:10286c0090358800a2a6a9007be6a900a286a90043
:10287c0077e6a9009ea6a9009e86a900a286a800bc
:10288c00907f240001002000d7000700c100200029
:10289c0080c3b30007010700c1002000c0c0b30013
:1028ac0004010700c100200060c0b3000101070053
:1028bc006200070010c0b3000080fa0000000600a0
:1028cc000400fa00000f7800110798000a00370086
:1028dc001e007800104078000000fb000000e000b3
:1028ec00110032001e007800104078001e0fe80026
:1028fc0010000700000000001e00900000f0a70070
:10290c000000ea000000ea004f00de000040780002
:10291c009e0090008100e900110798000004e0007f
:10292c00ebff3a0001003700000000000080fa00c5
:10293c00000006000200fa00004f78001e00fb00a9
:10294c00ea0f50000e003200ea0f500003003c006a
:10295c00e80f5000150032001b003700ec0f500040
:10296c0017003200ed0f500017003a0002c8bf00ec
:10297c00ea4f50002b0032003b0007002a003700c2
:10298c0002c8bf00ed4f50000100320036000700b6
:10299c0000c8bf000004e00002003a0087000700f6
:1029ac00210037007a0007001f0037003c000700a9
:1029bc0000c2b300dfff0700390007001a00370020
:1029cc001e0007001800370001c8bf00f04f500070
:1029dc000e003a000168ef0000c8bf000004e000e0
:1029ec0006003a00c100200000ccb300b100070083
:1029fc0010c0b30000e8b70004003700c10020008d
:102a0c0000c8b300ab0007000068ef001e40780060
:102a1c009100070001c8bf000040e80001e8b700c2
:102a2c0001003700000000001e41780021802000ca
:102a3c00824878000080fa00000006000000fa00ce
:102a4c00711f200010c0b3009a000700711f2000f6
:102a5c0020c0b300970007000068ef000168ef008a
:102a6c000080fa00000006000000fa0000c8bf0059
:102a7c000004e00004003a00c100200000c8b300cc
:102a8c008c00070003003700c100200000ccb3000d
:102a9c00880007000168ef000080fa0000000600c3
:102aac000200fa0001c8bf000004e00016003a0062
:102abc0000c8bf000004e00006003a00c10020007e
:102acc0000ccb3007b00070010c0b30000e8b700d7
:102adc0004003700c100200000c8b30075000700d7
:102aec000068ef000040eb00004f78000200370058
:102afc000d0007001e4fe8001e407800ee4f5000fe
:102b0c00fbff36000600370001c8bf000040e9009b
:102b1c0001e8b700c100200000c1b3006500070048
:102b2c000080fa00000006000000fa00c10020003e
:102b3c0040c1b3005f00070001c8bf000040e800bf
:102b4c0001e8b70001c8bf00f04f50000e003a007a
:102b5c000168ef0000c8bf000004e00006003a0066
:102b6c00c100200000ccb3005200070010c0b3001d
:102b7c0000e8b70004003700c100200000c8b30013
:102b8c004c0007000068ef000080fa00000006000f
:102b9c000200fa000040eb00004f78000200370002
:102bac00bfff07001e4fe8001e407800ef4f50009b
:102bbc00fbff36000080fa00000006000200fa005d
:102bcc000040eb00004f780002003700d6ff0700f2
:102bdc001e4fe8001e407800ef4f5000fbff360000
:102bec000080fa00000006000400fa00008fbe000e
:102bfc0005003700000000000081eb008081eb0035
:102c0c001e0f41005e9749001e00be00e00f5000f1
:102c1c00e08f5800f7ff3a000080fa000000060031
:102c2c000200fa00004f78001e4078000004e0001b
:102c3c0004003200c1002000f0c0b3001d000700ea
:102c4c0003003700c1002000c0c0b300190007000a
:102c5c000080fa00000006000200fa00004f780025
:102c6c00a2a6a9007be6a800b135800000f02f00d9
:102c7c0000806000b03588009e00fb00b0358000fd
:102c8c0001007000b0358800a286a800000000008a
:102c9c000000000000000000a286a9007be6a9004d
:102cac00c000200001002000cfff07000080fa00c8
:102cbc00000006000400fa00004f7800110798008d
:102ccc00b135800000f02f0000806000b035880026
:102cdc009e00fb00b035800001007000b03588000c
:102cec00a2a6a9007be6a900a286a800000000000d
:102cfc000000000000000000a286a900a286a90026
:102d0c001e0090008000eb00b7ff07000080fa0067
:042d1c0000000600ad
:020000040000fa
:102d2000b20800002000000080000000040800003d
:102d30000200000082000000ffff0000f008000019
:102d400002000000800000000608000002000000f1
:102d50008000000000080000040000008000000067
:102d6000d20800001a00000082000000686a6c00af
:102d7000747a4c000000010000020000040008000a
:102d800000100000000020002b2d23003000000068
:102d90000808000088000000820000000100000018
:102da000002e08002f082e00082e08002e082e00e6
:102db000081e0800000000000000000000000000e5
:102dc0000000000000000000000000000000000003
:102dd0000002080001015600085708005608560076
:102de00008560800560846000800000000000000d1
:102df00000000000000000000000000000000000d3
:102e00000000000000000200080202007e087f00af
:102e1000087e08007e087e00087e08006e0800001c
:102e200000000000000000000000000000000000a2
:102e30000000000000000000000000000808300052
:102e4000085808000000000000000000000000001a
:102e50000000000090080000220000008200000036
:102e600030313200333435003637380039414200d2
:102e700043444500460030003132330034353600db
:102e80003738390061626300646566000000000045
:102e9000f20800000200000080000000f4080000ba
:102ea000020000008200000004000000ec080000a6
:102eb0000400000080000000f6080000020000008e
:082ec00080000000000000008a
:020000040000fa
:102ec8000000fa006626ef007a26ef008e26ef0053
:102ed800a226ef00b626ef00ca26ef00de26ef0096
:102ee800f06f2c00103388000080eb00b0338800ae
:102ef800e0012b00503488000080eb00f03488009b
:102f0800f03f200090358800f01923003036880003
:102f1800f03c2f00d03688007426ef008826ef009a
:102f28009c26ef00b026ef00c426ef00d826ef005d
:102f3800ec26ef007226ef008626ef009a26ef00b7
:102f4800ae26ef00c226ef00d626ef00ea26ef00f5
:102f58006826ef007c26ef009026ef00a426ef00fd
:102f6800b826ef00cc26ef00e026ef00006c20002a
:102f780050338800f0f32f00f0338800000124005c
:102f880090348800000c2000303588000021200093
:102f9800d0358800003c20001037880001088000e8
:102fa800f00b200000816000600420007105200003
:102fb8000310200080497800814978008249780010
:102fc800913d8000f00f2c008080600000a0200060
:102fd80001007000903d8800213f8000f00f28001c
:102fe800808060000030210001007000203f8800d0
:102ff80000088000000178000260a0006004200042
:10300800710520000310200080497800814978006c
:10301800824978000080fa00000006000000fa00eb
:103028009021ef0090d02300900c88000003280026
:10303800a00c88008860a9009860a800008f200074
:103048008040eb00014878000080fa00000006008c
:103058000200fa00000f78009e007800910c8800aa
:10306800008f20008040eb00014878000080fa00c3
:10307800000006000000fa00900c80000080fa00b2
:10308800000006000200fa00000f78009e00780099
:10309800810c8800008f20008040eb0001487800f8
:1030a8000080fa00000006000000fa00800c800092
:1030b8000080fa00000006000000fa00200020004e
:1030c800d2fc070030002000d0fc07000080fa0086
:1030d800000006000000fa00008f20008040eb008e
:1030e800014878009860a80095e1a8000080fa00df
:1030f800000006000000fa0095e1a9009860a90008
:103108000080fa00000006000200fa00008f20008c
:10311800104f78001e4078000004e00003003200e1
:10312800008f20008040eb00014878001e407800a6
:103138000080fa00000006000000fa00108f20004e
:10314800104078000080fb000080fa0000000600b4
:103158000000fa00108f20008040eb000148780042
:103168000080fa00000006000200fa00000f780054
:103178001e007800e20f500013003200e20f5000ea
:1031880003003e00e10f500006003200290037001e
:10319800e30f500015003200e40f50001c0032000d
:1031a8002400370001358000000420000080600002
:1031b80000f0a7000000ea000000e9004f00de0070
:1031c800004078001c00370001358000000820000e
:1031d8000080600000f0a7000000ea000000e9009d
:1031e8004f00de00004078001300370021338000d4
:1031f800000820000080600000f0a7000000ea003e
:103208000000e9004f00de00004078000a003700a7
:1032180001358000000022000080600000f0a70057
:103228000000ea000000e9004f00de0000407800de
:10323800010037000040eb000080fa0000000600a3
:103248000200fa00000f78001e007800e20f50001c
:103258000d003200e20f500003003e00e10f500065
:103268000600320010003700e30f5000090032005a
:10327800e40f50000a0032000b0037009ec6a80079
:10328800a6c6a900080037009ee6a800a6e6a90081
:103298000500370062e6a8006ae6a90002003700c8
:1032a8009fa6a800000000000080fa0000000600a9
:1032b8004000fa007200070062fd0700f1002000dc
:1032c800001029007ffd07002000200034fd0700c2
:1032d8003000200032fd070030002000f9fb070015
:1032e80060132900e60047000c000900b058780078
:1032f800d000b100f3004700090009008058eb0036
:1033080010c0b3003057980020c0b3004057980051
:1033180030c0b3005057980040c0b30060579800c1
:1033280050c0b3007057980060c1b300004f7800d8
:1033380030142900fd0047001c000900b05878002f
:10334800d001b1008e007800a103b000050009008b
:103358008058eb000000eb00100798007d00470044
:10336800b0f40700200798000300370000000000b1
:10337800010037000000000030002000abfc07000f
:103388000004e000f9ff320006c8bf000040e80072
:1033980006e8b700618020009140780040c6b3007d
:1033a80080cf5000f3ff360000112900801f7800fd
:1033b800b0f407008f87e9001e80fb00801f7800ab
:1033c800b0122900801f7800aaf40700e48757008c
:1033d8000668ef00e8ff37000000fa0080002000d0
:1033e800201e8800c623ef0000012000601e880010
:1033f800ce23ef00c5e3a800c743a8000080fa0069
:10340800000006000000fa0000000000301e8000e6
:10341800610060000000e000fcff3200301e800008
:10342800620060000000e00001003200c623a9002d
:10343800501e8000004078000080fa00000006005e
:103448000200fa00004f780000000000311e8000e2
:1034580000202000008060000000e000fbff3a0030
:103468001e80fb00401e88000080fa000000060055
:103478000000fa00301e80000080fa0000000600fc
:103488000000fa008efe07002d0007000400070068
:10349800e2fe0700d0ff07000080fa0000000600e7
:1034a8000000fa00003823001008880000002800f7
:1034b800300888006821ef006a21ef006c21ef00d6
:1034c8000821ef0000702000500888000c21ef0050
:1034d8000e21ef007200200080072000a1092000c3
:1034e80013102000804978008149780082497800cb
:1034f8002200200060042000710520000310200035
:103508008049780081497800824978000080fa0073
:1035180000000600000f78009e0078002140880017
:10352800ffff37000000fa00208b2000800778009a
:10353800a08c2000000188000080fa00000006002e
:103548000000fa0041058000f0ff280000806000bc
:1035580000c0a000400588000080fa0000000600b6
:020000040000fa
:020000040015e5
:047e0000ffff000080
:020000040000fa
:020000040015e5
:047e2000ff1f000040
:020000040000fa
:020000040015e5
:047e30000fffff0041
:020000040000fa
:020000040015e5
:047e3800b9ffff008f
:020000040000fa
:020000040015e5
:047e40009fffff00a1
:020000040000fa
:020000040015e5
:047e4800ffffff0039
:020000040000fa
:020000040015e5
:047e5000deffff0052
:020000040000fa
:020000040015e5
:047e5800ffffff0029
:020000040000fa
:020000040100f9
:04300000ffffff00cf
:00000001FF
